:100000006F0000546F00C0080000000000000000F6
:10001000F9A0000000000000000000000000000047
:1000200011A200000000000000000000000000001D
:100030002DAA0000000000000000000000000000E9
:1000400000000000B5A200007DA20000000000003A
:1000500000000000000000000000000099A900005E
:1000600041A60000E1AA000029AC0000B1AC0000EC
:1000700079AC0000C5A400000DA600006DA600002C
:10008000F5A600001300000013000000130000009C
:10009000197106C00AC20EC412C616C81ACA1ECCEE
:1000A00022CE26D02AD22ED432D636D83ADA3EDC28
:1000B00042DEC6C0CAC2CEC4D2C6D6C8DACADECCF8
:1000C000E2CEE6D0EAD2EED4F2D6F6D8FADAFEDC08
:1000D00073252034F3251034EF00807731A919718E
:1000E00006C00AC20EC412C616C81ACA1ECC22CE38
:1000F00026D02AD22ED432D636D83ADA3EDC42DEA8
:10010000C6C0CAC2CEC4D2C6D6C8DACADECCE2CE17
:10011000E6D0EAD2EED4F2D6F6D8FADAFEDCEF0078
:10012000A06BD9AE197106C00AC20EC412C616C899
:100130001ACA1ECC22CE26D02AD22ED432D636D8F7
:100140003ADA3EDC42DEC6C0CAC2CEC4D2C6D6C887
:10015000DACADECCE2CEE6D0EAD2EED4F2D6F6D8D7
:10016000FADAFEDCEF00C05741AE197106C00AC2D0
:100170000EC412C616C81ACA1ECC22CE26D02AD247
:100180002ED432D636D83ADA3EDC42DEC6C0CAC2F7
:10019000CEC4D2C6D6C8DACADECCE2CEE6D0EAD227
:1001A000EED4F2D6F6D8FADAFEDCEF00C07FA9A6CC
:1001B000197106C00AC20EC412C616C81ACA1ECCCD
:1001C00022CE26D02AD22ED432D636D83ADA3EDC07
:1001D00042DEC6C0CAC2CEC4D2C6D6C8DACADECCD7
:1001E000E2CEE6D0EAD2EED4F2D6F6D8FADAFEDCE7
:1001F000EF00207D11A6197106C00AC20EC412C6F6
:1002000016C81ACA1ECC22CE26D02AD22ED432D656
:1002100036D83ADA3EDC42DEC6C0CAC2CEC4D2C646
:10022000D6C8DACADECCE2CEE6D0EAD2EED4F2D636
:10023000F6D8FADAFEDCEF00E0777DAC197106C083
:100240000AC20EC412C616C81ACA1ECC22CE26D0A6
:100250002AD22ED432D636D83ADA3EDC42DEC6C0B6
:10026000CAC2CEC4D2C6D6C8DACADECCE2CEE6D086
:10027000EAD2EED4F2D6F6D8FADAFEDCEF00207637
:10028000A5AC197106C00AC20EC412C616C81ACA95
:100290001ECC22CE26D02AD22ED432D636D83ADA66
:1002A0003EDC42DEC6C0CAC2CEC4D2C6D6C8DACA96
:1002B000DECCE2CEE6D0EAD2EED4F2D6F6D8FADA46
:1002C000FEDCEF00A0720DAC197106C00AC20EC4AC
:1002D00012C616C81ACA1ECC22CE26D02AD22ED4B6
:1002E00032D636D83ADA3EDC42DEC6C0CAC2CEC406
:1002F000D2C6D6C8DACADECCE2CEE6D0EAD2EED496
:10030000F2D6F6D8FADAFEDCEF00206FF5A219710A
:1003100006C00AC20EC412C616C81ACA1ECC22CE05
:1003200026D02AD22ED432D636D83ADA3EDC42DE75
:10033000C6C0CAC2CEC4D2C6D6C8DACADECCE2CEE5
:10034000E6D0EAD2EED4F2D6F6D8FADAFEDCEF0046
:10035000A06B5DA2197106C00AC20EC412C616C8EF
:100360001ACA1ECC22CE26D02AD22ED432D636D8C5
:100370003ADA3EDC42DEC6C0CAC2CEC4D2C6D6C855
:10038000DACADECCE2CEE6D0EAD2EED4F2D6F6D8A5
:10039000FADAFEDCEF00206885A2197106C00AC2F5
:1003A0000EC412C616C81ACA1ECC22CE26D02AD215
:1003B0002ED432D636D83ADA3EDC42DEC6C0CAC2C5
:1003C000CEC4D2C6D6C8DACADECCE2CEE6D0EAD2F5
:1003D000EED4F2D6F6D8FADAFEDCEF00A06429AA51
:1003E000197106C00AC20EC412C616C81ACA1ECC9B
:1003F00022CE26D02AD22ED432D636D83ADA3EDCD5
:1004000042DEC6C0CAC2CEC4D2C6D6C8DACADECCA4
:10041000E2CEE6D0EAD2EED4F2D6F6D8FADAFEDCB4
:10042000EF00005BD1A8197106C00AC20EC412C643
:1004300016C81ACA1ECC22CE26D02AD22ED432D624
:1004400036D83ADA3EDC42DEC6C0CAC2CEC4D2C614
:10045000D6C8DACADECCE2CEE6D0EAD2EED4F2D604
:10046000F6D8FADAFEDCEF00805D79A0197106C0DB
:100470000AC20EC412C616C81ACA1ECC22CE26D074
:100480002AD22ED432D636D83ADA3EDC42DEC6C084
:10049000CAC2CEC4D2C6D6C8DACADECCE2CEE6D054
:1004A000EAD2EED4F2D6F6D8FADAFEDCEF00005A41
:1004B000A1A0197106C00AC20EC412C616C81ACA73
:1004C0001ECC22CE26D02AD22ED432D636D83ADA34
:1004D0003EDC42DEC6C0CAC2CEC4D2C6D6C8DACA64
:1004E000DECCE2CEE6D0EAD2EED4F2D6F6D8FADA14
:1004F000FEDCEF00805609A082401241A241324248
:10050000C2425243E243724482541255A2553256BB
:10051000C2565257E257725886481649A649364A7B
:10052000C64A564BE64B764C865C165DA65D365E3B
:10053000C65E565FE65F0961730020300000000070
:10054000735000307350403097000000938080ABB0
:10055000B7C200029382C2FF23A00200F322103030
:1005600093F2120063940202F322503093F23200AD
:100570000543639D6200F322503093F2C2FF1703DC
:100580000000130363A86398620439A09702000077
:10059000938282A77390523017470000130787BDDC
:1005A00097470000938707BD17480000130888C2CB
:1005B0006308F7006386070197000000E7802008C2
:1005C000974100009381013B01281751000013015E
:1005D00061DA6F00603902908682938701A81388E0
:1005E00001E0638307012528938701A4138801A8EC
:1005F000638A07012D20938701E01388012063831C
:10060000070131281387018693870186138801A487
:100610006305F700638307010D2096808280636F76
:10062000F802B368F80093F838006349100323A078
:1006300007009107E3CD07FF82806361F802B3688A
:10064000F80093F83800634B10018328070023A0BB
:10065000170191071107E3CA07FF11A001A08280CB
:10066000011122CE0010232604FE232404FE37C5E8
:100670000002711508412326A4FE37C5000261154A
:1006800008412324A4FE37C5000271158328050004
:100690000325C4FEE39DA8FC37C50002711508417F
:1006A0002A838143131803008147032584FEAA8609
:1006B0000147B3E5D7003366E800AE8732883E8550
:1006C000C285724405618280411122C60008996783
:1006D00098539967759B98D30100324441018280F9
:1006E000797106D622D44AD24ED00018930700085A
:1006F000F3B747302326F4FEA5372320A4FE232298
:10070000B4FE99A0938781A403A847009C43138754
:1007100001A40C435043B386B70036853335F5004A
:100720003307C800B307E5003E87B6873A881387CA
:1007300081A41CC323220701938701A59C4313872F
:100740001700938701A598C3832704FE032844FE5E
:1007500095450146B386B70036853335F500330736
:10076000C800B307E5003E87938781A403A847002C
:100770009C43BA854286E367B6F8BA85428663959C
:10078000C5003687E3E0E7F8B747000291077D57D9
:1007900098C3938781A403A847009C43374700026E
:1007A0001CC3938781A403A847009C4313590800E6
:1007B0008149B747000291074A8798C3F12A9307F6
:1007C0000008F3A74730232EF4FC0100B250225456
:1007D0001259825945618280411106C622C400081F
:1007E0007522DD350100B240224441018280397119
:1007F00006DE22DC8000AA87A307F4FCF32740F181
:100800002326F4FE8327C4FE2320F4FE232204FEC5
:100810000347F4FCFD4763F3E70002900347F4FC51
:10082000BD4763E3E70002908347F4FCC117A30FC1
:10083000F4FC8347F4FD173700001307A72B8A0742
:10084000BA979C4382970100F250625421618280E2
:100850001D7186CEA2CC80102326A4FA2324B4FADC
:100860000327C4FABA870148370700807D8F232405
:10087000E4FE937708002326F4FE832784FE0327F3
:10088000C4FED98FA5CF0327C4FAB707008093C74A
:1008900007FFF98F85C30327C4FAB707008093C702
:1008A00007FEF98F81EB8327C4FA93F7F70F3E8594
:1008B0003D3F75A00327C4FAB707008093C7F7FF31
:1008C0007D8FAD476314F700F92851A80327C4FAB8
:1008D000B707008093C7F7FF7D8F8D476314F7003C
:1008E000E53DB5A80327C4FAB707008093C7F7FF13
:1008F0007D8F9D476315F706E53395A0F3274034B8
:100900002322F4FE832744FE2320F4FEF327303411
:10091000232EF4FC8327C4FD232CF4FCF327503052
:10092000232AF4FC832744FD2328F4FCF327003416
:100930002326F4FC8327C4FC2324F4FCF327003093
:100940002322F4FC832744FC2320F4FCF3271034F7
:10095000232EF4FA8327C4FB232CF4FA029001001F
:10096000F640664425618280411106C622C4000813
:10097000EF20E0290100B240224441018280411170
:1009800022C600080100324441018280411106C69E
:1009900022C400082945C928411122C600080100C7
:1009A000324441018280411122C6000801003244D4
:1009B00041018280411122C60008010032444101F8
:1009C0008280411122C60008010032444101828028
:1009D000411122C6000801003244410182804111C8
:1009E00022C600080100324441018280411122C622
:1009F00000080100324441018280411122C60008F2
:100A00000100324441018280411122C600080100E8
:100A1000324441018280411122C600080100324463
:100A200041018280411122C6000801003244410187
:100A30008280411106C622C4000829453520411193
:100A400022C600080100324441018280411122C6C1
:100A500000080100324441018280411122C6000891
:100A60000100324441018280011122CE0010232670
:100A7000A4FE01A0797122D60018232EA4FC2326FF
:100A800004FE13870120938701E063E3E7000290EF
:100A9000973700009387076E98438327C4FD3E97DE
:100AA000938701E0636EF700973700009387876CA8
:100AB00098438327C4FD3E979387012063FAE7009C
:100AC000938741A5314798C3FD572326F4FE15A807
:100AD000973700009387076A98438327C4FD3E97A2
:100AE000973700009387076998C39737000093876B
:100AF000676898438327C4FDB307F040BA9723265D
:100B0000F4FE973700009387E766984393870120A8
:100B100063F3E70002908327C4FE3E8532544561AB
:100B200082800CC1828008418280368E331EBE00D6
:100B3000337ECE0003230500B28393C3F3FF3373E8
:100B400073003363C3012320650082800841718DE7
:100B50003355B50082802310B5008280031505004F
:100B60008280368E331EBE00337ECE000313050016
:100B7000B28393C3F3FF337373003363C301231052
:100B80006500828003150500718D3355B5008280A4
:100B90002300B5008280030505008280368E331E57
:100BA000BE00337ECE0003030500B28393C3F3FF80
:100BB000337373003363C301230065008280030530
:100BC0000500718D3355B5008280797106D622D427
:100BD0000018232EA4FC232CB4FCB2873687231BD9
:100BE000F4FCBA87A30AF4FC8327C4FD91E30290C6
:100BF000034754FD9D4763F3E7000290035764FDEC
:100C000089676363F70002908327C4FD638407103C
:100C1000034754FD9D4763EFE70E035764FD896763
:100C2000637AF70E832784FD13878700835764FD5B
:100C300093F7F70FBE853A85A13F832784FD9386FE
:100C4000C700034754FD835764FD958793F7877F5B
:100C5000D98FBE8536852D3F8327C4FD032784FDAC
:100C600098C38327C4FD9C43A1073E852D37AA87DF
:100C70002316F4FE8327C4FD9C43B1073E85213F24
:100C8000AA87A305F4FE8347B4FEE19B2305F4FE87
:100C90008347A4FEC207C1839607139707014183C8
:100CA0008357C4FED98F2316F4FE8347B4FE9D8B71
:100CB000A305F4FE0357C4FE835764FD6303F700E6
:100CC00002900347B4FE834754FD6303F70002908C
:100CD0008327C4FD9C43C1073E85753DAA87898B48
:100CE000A307F4FE0DA08327C4FD9C4391073E8516
:100CF0005D358327C4FD9C43C1073E85693DAA87B6
:100D0000898BA307F4FE8347F4FEF1FF8327C4FD1C
:100D1000238207000100B25022544561828079711C
:100D200006D622D40018232EA4FC232CB4FC232A9C
:100D3000C4FC8327C4FD91E30290832784FD91E3E3
:100D40000290832744FD91E302908327C4FDB9CF2D
:100D5000832784FDA1CF832744FDA9CB232604FE4E
:100D600081A08327C4FD9C43C1073E852D35AA87FA
:100D7000858BA305F4FE8347B4FEE5D78327C4FD26
:100D80009443032784FD8327C4FEBA9783C70700D3
:100D9000BE853685F53B8327C4FE85072326F4FEF2
:100DA0000327C4FE832744FDE36DF7FA0100B25028
:100DB000225445618280797106D622D426D2001849
:100DC000232EA4FC232CB4FC232AC4FC232404FEDD
:100DD0008327C4FD91E30290832784FD91E3029071
:100DE000832744FD91E302908327C4FDD5CF832759
:100DF00084FDDDCB832744FDC5CB232404FE83275C
:100E0000C4FD9C43C1073E857933AA87A303F4FE42
:100E10008327C4FD03C74700834774FED98F13F7A8
:100E2000F70F8327C4FD2382E700834774FE898B75
:100E3000A307F4FE8DA08327C4FD9C43938647003F
:100E4000032784FD832784FEB304F7003685A1338E
:100E5000AA872380F400832784FE85072324F4FED9
:100E60008327C4FD9C43C1073E853533AA87A3036E
:100E7000F4FE8327C4FD03C74700834774FED98F60
:100E800013F7F70F8327C4FD2382E700834774FE1F
:100E9000898BA307F4FE8347F4FE99C7032784FEDA
:100EA000832744FDE369F7F8832784FE3E85B2502B
:100EB0002254925445618280797106D622D400185A
:100EC000232EA4FC232CB4FC8327C4FD91E30290C1
:100ED000832784FD91E302908327C4FDB1CF83274C
:100EE00084FDB9CB232604FE81A08327C4FD9C4347
:100EF000C1073E854D31AA87858BA305F4FE834744
:100F0000B4FEE5D78327C4FD9443032784FD8327DC
:100F1000C4FEBA9783C70700BE85368595398327F7
:100F2000C4FE85072326F4FE032784FD8327C4FE21
:100F3000BA9783C70700D5FB0100B2502254456120
:100F40008280797122D60018232EA4FCFD57A307B6
:100F5000F4FE8327C4FD91E302908327C4FD99CF5B
:100F60008327C4FD83C74700898793F7F70F9D8BBD
:100F7000A307F4FE8327C4FD238207008347F4FE02
:100F80003E85325445618280011106CE22CC00108C
:100F90002326A4FE2324B4FEB2872313F4FE832762
:100FA000C4FE91E30290832784FE91E302900357ED
:100FB00064FE9307000263F3E7000290835764FE28
:100FC00091E302908327C4FECDC3832784FED1CF53
:100FD0001306C00481450325C4FEEF105074832717
:100FE000C4FE032784FE98C3035764FE93070002E0
:100FF00063ECE700835764FE81CB8327C4FE03576D
:1010000064FE2392E70431A08327C4FE05472392A0
:10101000E7048327C4FE9C438146054681453E85FF
:10102000B53E8327C4FE9C439387470281453E8596
:1010300085368327C4FE9C43F1078D453E85893E56
:101040008327C4FE9C4391079305F00F3E858936A4
:101050008327C4FE9C43E10781453E85153E8327D7
:10106000C4FE9C438D453E8525360100F240624416
:1010700005618280011106CE22CC00102326A4FE39
:101080008327C4FE91E302908327C4FEA9CB832764
:10109000C4FE9C438146054681453E850136832733
:1010A000C4FE23A407048327C4FE9C43F1078D4597
:1010B0003E85F93C8327C4FE9C4391079305F00FBE
:1010C0003E85F9348327C4FE9C43E10781453E8574
:1010D000C1348327C4FE9C438D453E85553C0100A9
:1010E000F240624405618280797106D622D40018EC
:1010F000232EA4FC232CB4FCB2872328D4FC231B6E
:10110000F4FCBA87231AF4FC232204FE231704FEFE
:10111000231604FE231504FE231404FE8327C4FDB6
:1011200091E302908327C4FD638B07428327C4FDAC
:101130009C43094685453E855934AA876381074209
:10114000035764FD835744FDBA97638A07400357EA
:1011500064FD835744FDBA97FD172322F4FE8327CD
:10116000C4FD9C43F1078D453E851D348327C4FD96
:101170009C4393870702414691453E858934AA875F
:101180003E8785476315F7000325C4FDF12E8327AD
:10119000C4FD9C438146054681453E85013481A8B6
:1011A0000357C4FE835764FD6372F7028327C4FDAF
:1011B0009C439386C7008357C4FE032784FDBA97D8
:1011C00083C70700BE853685A93A01A88327C4FDD9
:1011D0009C43B10781453E85A932835784FE85072C
:1011E0002314F4FE8357C4FE85072316F4FE8357A9
:1011F000C4FE032744FE63FAE7008327C4FD83D7B8
:1012000047040357C4FEE36DF7F88357C4FE032772
:1012100044FE6314F7068327C4FD83D747040357AE
:10122000C4FE637CF7040357C4FE835764FD6373F5
:10123000F7028327C4FD9C43938687028357C4FE2D
:10124000032784FDBA9783C70700BE853685EFF074
:101250005F8D11A88327C4FD9C4393878702814536
:101260003E85EFF01F8C835784FE85072314F4FE20
:101270008357C4FE85072316F4FE8327C4FD9C43D1
:101280008546054681453E85113A7DA08327C4FDEC
:1012900083D74704035784FE6373F7068357C4FE5E
:1012A000032744FE6313F7028327C4FD9C43938600
:1012B00087028357C4FE032784FDBA9783C70700BC
:1012C000BE853685EFF0FF850DA08327C4FD9C43C6
:1012D0009386C7008357C4FE032784FDBA9783C74C
:1012E0000700BE853685EFF0DF838357C4FE850790
:1012F0002316F4FE835784FE85072314F4FE832708
:10130000C4FD9C4393870702114689453E85EFF053
:101310001F8BAA8795E38327C4FD9C43A1073E85C5
:10132000EFF07F808357E4FE85072317F4FE835791
:1013300084FEFD172314F4FE0357C4FE835764FD97
:10134000E366F7F4B5A88327C4FD83D747040357A2
:1013500084FE637AF7028357C4FE032744FE63F4D6
:10136000E7028327C4FD9C43B10781453E85EFF02A
:101370004FFB8357C4FE85072316F4FE835784FE74
:1013800085072314F4FE8327C4FD9C43938707023B
:10139000114689453E85EFF09F82AA8795E3832712
:1013A000C4FD9C43A1073E85EFF0EFF78357E4FEB1
:1013B00085072317F4FE835784FEFD172314F4FEDC
:1013C0000357E4FE835764FDE36FF7F679A08327A4
:1013D000C4FD83D74704035784FE6374F702832751
:1013E000C4FD9C43B10781453E85EFF08FF38357E1
:1013F000C4FE85072316F4FE835784FE8507231455
:10140000F4FE8327C4FD9C43938707021146894558
:101410003E85EFF0CFFAAA87A9E38327C4FD9C435A
:10142000A1073E85EFF02FF0AA868357A4FE03277D
:1014300004FDBA9713F7F60F2380E7008357A4FE45
:1014400085072315F4FE8357E4FE85072317F4FE72
:10145000835784FEFD172314F4FE8357C4FE03272D
:1014600044FEE3E6E7F641A88327C4FD83D747049B
:10147000035784FE6375F7028327C4FD9C4393875B
:10148000870281453E85EFF0CFE98357C4FE85078B
:101490002316F4FE835784FE85072314F4FE832766
:1014A000C4FD9C4393870702114689453E85EFF0B2
:1014B0000FF1AA87A9E38327C4FD9C43A1073E85BA
:1014C000EFF06FE6AA868357A4FE032704FDBA97C0
:1014D00013F7F60F2380E7008357A4FE8507231533
:1014E000F4FE8357E4FE85072317F4FE835784FE3A
:1014F000FD172314F4FE8357C4FE032744FEE305BF
:10150000F7F681A88327C4FD9C4393870702114601
:1015100089453E85EFF0AFEAAA8785EF8327C4FDB2
:101520009C43A1073E85EFF00FE0AA868357A4FEF7
:10153000032704FDBA9713F7F60F2380E7008357BC
:10154000A4FE85072315F4FE8357E4FE85072317C1
:10155000F4FE8357E4FE032744FEE375F7FA010027
:10156000B250225445618280011106CE22CC001077
:101570002326A4FE8327C4FE9C438146054681455D
:101580003E85EFF0AFE18327C4FE9C43F1078D4514
:101590003E85EFF0EFDF8327C4FE9C439107930560
:1015A000F00F3E85EFF0CFDE8327C4FE9C438546D7
:1015B000054681453E85EFF06FDE0100F240624452
:1015C00005618280797106D622D40018232EA4FCEE
:1015D000232CB4FC232AC4FCA30704FE832784FD28
:1015E0002324F4FE8327C4FD032784FD98C38327A7
:1015F000C4FD032744FDD8C3A30704FE832784FD4D
:101600002324F4FE05A08145032584FEEFF04FD886
:10161000832784FE91072324F4FE8347F4FE850785
:10162000A307F4FE0347F4FEFD47E3FEE7FC832730
:10163000C4FDDC4305476380E702A9C70947639CF3
:10164000E7088327C4FD9C4393870708FD553E8523
:10165000EFF02FCD59A08327C4FD9C4313870708C3
:10166000C1679385F7FF3A85EFF0EFCE8327C4FD7E
:101670009C4313874708C1679385F7FF3A85EFF0CE
:101680008FCDA1A88327C4FD9C43938707089305AA
:10169000F00F3E85EFF0CFCF8327C4FD9C439387A7
:1016A00047089305F00F3E85EFF08FCE8327C4FDEA
:1016B0009C43938787089305F00F3E85EFF04FCD4D
:1016C0008327C4FD9C439387C7089305F00F3E858D
:1016D000EFF00FCC19A0029001000100B25022548B
:1016E00045618280797106D622D40018232EA4FC8D
:1016F000232604FE8327C4FDDC4305476381E702FC
:10170000B9CF0947639DE70C8327C4FD9C439387AA
:10171000070A3E85EFF02FC12326A4FED9A0832718
:10172000C4FD9C439387070A3E85EFF02FC3AA8729
:101730003E878327C4FED98F2326F4FE8327C4FD6A
:101740009C439387470A3E85EFF04FC1AA87C207A3
:101750003E878327C4FED98F2326F4FE59A0832712
:10176000C4FD9C439387070A3E85EFF02FBFAA87ED
:101770003E878327C4FED98F2326F4FE8327C4FD2A
:101780009C439387470A3E85EFF04FBDAA87A20787
:101790003E878327C4FED98F2326F4FE8327C4FD0A
:1017A0009C439387870A3E85EFF04FBBAA87C20709
:1017B0003E878327C4FED98F2326F4FE8327C4FDEA
:1017C0009C439387C70A3E85EFF04FB9AA87E2078B
:1017D0003E878327C4FED98F2326F4FE19A00290EA
:1017E00001008327C4FE3E85B250225445618280A9
:1017F000797106D622D40018232EA4FC232CB4FC25
:10180000B287A30BF4FC032784FDFD4763F3E700D5
:1018100002908327C4FDDC4305476386E7086382A3
:1018200007120947639DE71A8327C4FD9C439387EA
:10183000070A3E85EFF02FAF2326A4FE834774FDF1
:1018400099EF832784FD0547B317F70093C7F7FF88
:101850003E878327C4FEF98F2326F4FE21A8832721
:1018600084FD0547B317F7003E878327C4FED98F51
:101870002326F4FE8327C4FD9C439387070A832510
:10188000C4FE3E85EFF0EFA98327C4FD9C439387F8
:10189000070A3E85EFF02FA92A878327C4FE6382BB
:1018A000E71402903DAA8327C4FD9843832784FD53
:1018B00091838A07BA979387070A2322F4FE0325A8
:1018C00044FEEFF0AFA9AA872315F4FE834774FD09
:1018D00095E7832784FDBD8B0547B317F700C20743
:1018E000C18793C7F7FF1397070141878317A4FEAA
:1018F000F98FC207C1872315F4FE0DA0832784FD4D
:10190000BD8B0547B317F70013970701418783176E
:10191000A4FED98FC207C1872315F4FE8357A4FE06
:10192000BE85032544FEEFF00FA3032544FEEFF030
:10193000EFA2AA873E878357A4FE6386E70A029038
:101940005DA08327C4FD9843832784FD8D838A0788
:10195000BA979387070A2320F4FE032504FEEFF0CD
:101960008FA3AA87A304F4FE834774FD95E783271A
:1019700084FD9D8B0547B317F700E207E18793C706
:10198000F7FF139787016187830794FEF98FE207BA
:10199000E187A304F4FE0DA0832784FD9D8B0547FA
:1019A000B317F700139787016187830794FED98FD8
:1019B000E207E187A304F4FE834794FEBE85032576
:1019C00004FEEFF0EF9C032504FEEFF0CF9CAA8706
:1019D0003E87834794FE638AE700029039A0029015
:1019E00031A0010021A0010011A001000100B250AE
:1019F000225445618280797122D60018AA872E87E9
:101A0000A30FF4FCBA87231EF4FC231704FE03572C
:101A1000C4FD9307D01563F6E7009307D015231E86
:101A2000F4FC8347F4FDBE07139707014187831732
:101A3000E4FED98FC207C1872317F4FE0357E4FEE3
:101A40008357C4FDD98F2317F4FE8357E4FE3E85E8
:101A5000325445618280797106D622D40018AA8753
:101A6000231FF4FC8357E4FDBE8505456937AA872B
:101A70002317F4FE8357E4FE3E85EF10E02FAA877C
:101A8000A306F4FE8347D4FE3E85B250225445613E
:101A90008280797106D622D40018AA872E87231F48
:101AA000F4FCBA87A30EF4FC8357E4FDBE85014520
:101AB0009937AA872317F4FE0347D4FD8357E4FE22
:101AC000BA853E85EF1080310100B2502254456145
:101AD0008280411106C622C40008930520071D45D7
:101AE0004D3F9305F00813052005653793057005F4
:101AF00013053005793F8D4513054005593F930582
:101B000080061305500571379305400213056005E3
:101B10004937D14513058005AD3F930520051305D1
:101B20009005853F930570061305A0059D37930525
:101B300080061305C005B13FA1451305D005913FAF
:101B40009305D00F1305F005A93793050008130579
:101B500040068137B5451305B006253F9305700251
:101B60001305D0063D379305700E1305700A15371F
:101B70000100B240224441018280411122C6000886
:101B8000938781A598439387C1A59C43B307F740EA
:101B900093B7170093F7F70F3E85324441018280D7
:101BA000411122C60008938781A598439387C1A558
:101BB0009C43B307F74093B7970093C7170093F779
:101BC000F70F3E85324441018280411122C6000850
:101BD000938701A698439387C1A59C4363FAE700C6
:101BE000938701A69C431387F7FF938701A698C3A9
:101BF0000100324441018280411122C600089387CE
:101C000081A59C431387F7FF938701A69C4363FA42
:101C1000E700938701A69C4313871700938701A6CB
:101C200098C30100324441018280411122C600085C
:101C3000938701A69C439D8B13975700938701A818
:101C4000BA973E85324441018280797106D622D40A
:101C50000018232EA4FC8327C4FD8387070081EB93
:101C6000938781A59843938701A698C375A03137C0
:101C7000AA8793C7170093F7F70F8DCF938781A596
:101C80009C43FD179D8B2326F4FE8327C4FE1397E8
:101C90005700938701A8BA978325C4FD3E85EF10AE
:101CA000602DAA8781EB938781A59843938701A62E
:101CB00098C39DA0938781A59C439D8B1397570044
:101CC000938701A8BA977D468325C4FD3E85EF1012
:101CD000202E938781A59C439D8B138701A896078F
:101CE000BA97A38F0700938781A59C43138717009A
:101CF000938781A598C3938781A59843938701A66D
:101D000098C3793DAA8789CB9387C1A59C43138744
:101D100017009387C1A598C3B250225445618280B1
:101D2000797122D60018232EA4FC09A88327C4FDAC
:101D30009C43138717008327C4FD98C38327C4FDE2
:101D40009C438387070093F7F70F138717009727A4
:101D500000009387E72DBA978387070093F7F70F63
:101D6000A18BE9F78327C4FD9C438387070089E79C
:101D70008327C4FD9C43B5A88327C4FD9C43232629
:101D8000F4FE09A88327C4FD9C431387170083270B
:101D9000C4FD98C38327C4FD9C438387070093F742
:101DA000F70F138717009727000093876728BA97C4
:101DB0008387070093F7F70FA18B99E78327C4FD6B
:101DC0009C4383870700DDFF8327C4FD9C438387F3
:101DD000070091CF8327C4FD9C43238007008327FE
:101DE000C4FD9C43138717008327C4FD98C3832732
:101DF000C4FE3E85325445618280011106CE22CC5C
:101E000000102326A4FE8325C4FE17250000130519
:101E100065D2EF1080030100F240624405618280C8
:101E2000011106CE22CC00102326A4FE17250000A7
:101E3000130545D2EF10200A0100F240624405610B
:101E40008280797106D622D40018232EA4FC930731
:101E500044FE2946BE850325C4FDEF10602A2326D3
:101E6000A4FE832744FE0327C4FD6313F70217254E
:101E70000000130525D1EF100006EF00306EAA8791
:101E8000BE85172500001305A5D1EF00107C75A8AD
:101E9000930744FE3E8569352324A4FE9725000060
:101EA000938585D1032584FEEF106008AA8791EB06
:101EB0008327C4FE93F7F70F85453E85EF00B06496
:101EC00069A097250000938565CF032584FEEF1058
:101ED0000006AA8791EB8327C4FE93F7F70F81458D
:101EE0003E85EF00506295A097250000938545CD73
:101EF000032584FEEF10A003AA87A1E38327C4FE75
:101F000093F7F70F85453E85EF00F05F232004FE31
:101F100031A0832704FE85072320F4FE032704FE57
:101F20009307703EE3F7E7FE8327C4FE93F7F70FAE
:101F300081453E85EF00305D09A8832584FE172585
:101F40000000130525C8EF0050700100B250225464
:101F500045618280011106CE22CC00102326A4FE0A
:101F6000172500001305C5C7EF00F0760100F24009
:101F7000624405618280797106D622D40018232E2E
:101F8000A4FC9307C4FD3E85613B2326A4FE832762
:101F9000C4FD130744FE4146BA853E85EF10401646
:101FA000AA872315F4FE032744FE8327C4FD63019B
:101FB000F702832744FE232EF4FC97250000938527
:101FC00065C90325C4FEEF009076AA8795EF01A8A6
:101FD00017250000130585C6EF00F06F79A8835719
:101FE000A4FE3E85EFF03FA7AA87A304F4FE835723
:101FF000A4FE034794FE3A86BE851725000013050C
:10200000E5C5EF00906495A897250000938505C766
:102010000325C4FEEF00B071AA87A1EB8327C4FD9E
:10202000130744FE4146BA853E85EF10600DAA872E
:102030002304F4FE032744FE8327C4FD630FF70245
:102040008357A4FE034784FE3A86BE851725000009
:10205000130545C3EF00705F034784FE8357A4FE5A
:10206000BA853E85EFF0FFA209A88325C4FE172597
:102070000000130525C3EF00505DB25022544561A6
:102080008280011106CE22CC00102326A4FE172543
:1020900000001305E5C2EF0010640100F240624445
:1020A00005618280397106DE22DC80002326A4FCD3
:1020B0009307C4FC3E85AD312324A4FE8327C4FCD2
:1020C000130744FD4146BA853E85EF106003AA8799
:1020D0002322F4FE032744FD8327C4FC6301F70297
:1020E000832744FD2326F4FC97250000938585B6BD
:1020F000032584FEEF00B063AA87D5EB01A817255E
:1021000000001305A5B3EF00105D31A28327C4FCC6
:10211000130744FD2946BA853E85EF00707EAA87E5
:102120002320F4FE832744FE2326F4FE032744FDE8
:102130008327C4FC6301F70E032604FE832544FEB7
:10214000172500001305C5C0EF0030503DA88327B8
:10215000C4FEBD8B89EB8325C4FE17250000130543
:10216000E5C0EF00904E8327C4FE9C43232EF4FC71
:102170008325C4FD17250000130505C0EF00F04CB2
:102180008327C4FE91072326F4FE832704FE1397BA
:102190002700832744FEBA970327C4FEE369F7FAB2
:1021A000172500001305C5BDEF00F052ADA097251F
:1021B00000009385A5AC032584FEEF005057AA8745
:1021C000B9E38327C4FC130744FD4146BA853E8525
:1021D000EF001073AA87232CF4FC032744FD832708
:1021E000C4FC630AF702032684FD832544FE1725F9
:1021F0000000130525A9EF005045832744FE03275F
:1022000084FD98C309A8832584FE172500001305C3
:1022100065B7EF009043F250625421618280011152
:1022200006CE22CC00102326A4FE1725000013059D
:1022300065B7EF00504A0100F240624405618280B8
:10224000797106D622D40018232EA4FC9307C4FD6E
:102250003E85EFF0FFAC2326A4FE97250000938572
:1022600025BE0325C4FEEF00904CAA8781E7EFF05E
:102270005F8609A88325C4FE172500001305C5BC89
:10228000EF00B03C0100B250225445618280011140
:1022900006CE22CC00102326A4FE1725000013052D
:1022A00065BCEF0050430100F2406244056182804A
:1022B000797106D622D40018232EA4FC9307C4FDFE
:1022C0003E85EFF0FFA52320A4FE832704FE83872D
:1022D0000700D1C7A30704FE232404FEA1A8138787
:1022E00001CA832784FE9207BA979C4795CF13872C
:1022F00001CA832784FE9207BA979C47BE850325AF
:1023000004FEEF00D042AA878DE3138701CA83271A
:1023100084FE9207BA97D8438327C4FD3E8502976F
:102320008547A307F4FE11A00100832784FE8507DB
:102330002324F4FE032784FEBD47E3F2E7FA834734
:10234000F4FE93C7170093F7F70FADC7832504FE7C
:10235000172500001305C5B5EF00302FA1A82322D3
:1023600004FEA1A0138701CA832744FE9207BA97EF
:102370009C439DC7138701CA832744FE9207BA97DF
:102380009447138701CA832744FE9207BA97DC4714
:102390003E86B68517250000130505B3EF00F02A29
:1023A000832744FE85072322F4FE032744FEBD470E
:1023B000E3FAE7FA0100B25022544561828001112C
:1023C00006CE22CC00102326A4FE172500001305FC
:1023D000A5B0EF0050300100F240624405618280F8
:1023E000011122CE00102326A4FE2324B4FE2322B2
:1023F000C4FE2320D4FE938741A69843BD4763E2E1
:10240000E706938741A69C43138701CA9207BA97B0
:102410000327C4FE98C3938741A69C43138701CA30
:102420009207BA97032784FED8C3938741A69C439B
:10243000138701CA9207BA97032744FE98C7938768
:1024400041A69C43138701CA9207BA97032704FE4B
:10245000D8C7938741A69C4313871700938741A64B
:1024600098C30100724405618280411106C622C4EE
:10247000000897260000938626AB17260000130657
:10248000A6AB970500009385C5E01705000013056E
:1024900065DBB93797260000938646AA1726000009
:1024A0001306C6AB97050000938505AB1705000022
:1024B000130565993537972600009386A6AA172637
:1024C0000000130626AB97050000938585EF1705DE
:1024D0000000130525DE293797260000938606AAFB
:1024E00017260000130606AB97050000938565D3F9
:1024F00017050000130545BBE535972600009386B8
:10250000A6A917260000130666AA97050000938562
:1025100085B717050000130545A6D9359726000095
:10252000938606A917260000130686AA97050000C1
:102530009385458F170500001305658C55350100FF
:10254000B240224441018280397106DE22DC8000E3
:10255000AA87A307F4FC0307F4FCA1476308F7006C
:102560000307F4FC9307F0076310F702938781A633
:102570009C436385071E938781A69C431387F7FFBF
:10258000938781A698C3D9AA0307F4FCF94763157A
:10259000F704EFF08FE3EFF04FE92322A4FE832648
:1025A00044FE17260000130626A3930500021725F4
:1025B00000001305A5A2EF005009832544FE1385F2
:1025C00001B8EF00B01C032544FEEF00501D2A8720
:1025D000938781A698C381A80307F4FCFD47631481
:1025E000F704EFF06FE1EFF04FE42320A4FE832621
:1025F00004FE172600001306269E930500021725E9
:1026000000001305A59DEF005004832504FE1385EB
:1026100001B8EF00B017032504FEEF0050182A8719
:10262000938781A698C38307F4FC13871700972725
:1026300000009387E79FBA978387070093F777098E
:1026400091E70307F4FCA947631CF710938781A661
:102650009843F94763E9E7020307F4FCA9476304D9
:10266000F702938781A69C43138701B8BA97034763
:10267000F4FC2380E700938781A69C43138717000F
:10268000938781A698C30307F4FCA947631BF70C43
:10269000938781A69C43138701B8BA9723800700CC
:1026A000138501B8EFF06FDA938701B8232CF4FC9F
:1026B000930784FD3E85EFF0AFE6232EA4FCA3072D
:1026C00004FE232404FE99A8138701CA832784FEED
:1026D0009207BA979C47A9CB138701CA832784FE28
:1026E0009207BA979C47BE850325C4FDEF003004CE
:1026F000AA8785E3138701CA832784FE9207BA97C6
:102700009843832784FD3E8502978547A307F4FEFF
:1027100029A8832784FE85072324F4FE032784FE4B
:10272000BD47E3F3E7FA11A001008347F4FE93C726
:10273000170093F7F70F91CF8327C4FD8387070016
:1027400089CB8325C4FD172500001305A589EF005B
:10275000C06F938781A623A0070021A0010011A0CC
:102760000100F250625421618280797122D60018F2
:10277000C167FD17232EF4FCC167FD17232CF4FC61
:102780008D472320F4FE232604FE232404FE232267
:1027900004FE232604FE65A08327C4FE139787004A
:1027A000972700009387479D9C431367F70198C3C1
:1027B000972700009387C79C9C4323A00700010034
:1027C000938741819C439C43E5FF8327C4FE9396F6
:1027D0008700972700009387279A9C43032704FECE
:1027E000558F98C397270000938747999C430547C7
:1027F00098C331A0832784FE85072324F4FE9387A2
:1028000041819C439C43FDF797270000938787975E
:102810009C439C43232CF4FC032784FDC167FD17D4
:10282000630AF700832784FD91C7832744FE850749
:102830002322F4FE8327C4FE85072326F4FE032704
:10284000C4FEFD47E3FAE7F4972700009387C79299
:102850009C4309671307F7F198C3972700009387F4
:1028600027929C4323A007000100938741819C434A
:102870009C43E5FF97270000938707909C430967D7
:102880001307F7F198C3972700009387278F9C437E
:10289000054798C30100938741819C439C43E5FF12
:1028A000972700009387078E9C439C43232CF4FCBE
:1028B000972700009387878C9C4323A007009727C6
:1028C00000009387E78B9C4323A0070001009387B8
:1028D00041819C439C43E5FF972700009387C7896C
:1028E0009C430967130777F198C3972700009387E4
:1028F000E7889C43054798C30100938741819C4327
:102900009C43E5FF972700009387C7879C439C4320
:10291000232CF4FC97270000938747869C4323A031
:102920000700032784FD8567D98F232CF4FC032738
:1029300084FDFD779387F77FF98F232CF4FC97278D
:1029400000009387E7839C43032784FD98C301001D
:10295000938741819C439C43E5FF97270000938721
:10296000A7819C430967130707F098C397270000C6
:102970009387C7809C43054798C301009387418193
:102980009C439C43E5FF971700009387A77F9C43D8
:102990009C43232EF4FC971700009387277E9C43CB
:1029A00023A00700971700009387077D9C430967C2
:1029B000130707F098C30327C4FDA167D98F232EFF
:1029C000F4FC971700009387A77B9C430327C4FD63
:1029D00098C30100938741819C439C43E5FF97176F
:1029E0000000938767799C430967130707F098C332
:1029F00097170000938787789C43054798C3010089
:102A0000938741819C439C43E5FF97170000938780
:102A100067779C439C43232CF4FC97170000938713
:102A2000E7759C4323A00700032784FDA167F98F66
:102A3000DDF797170000938727749C4309671307F6
:102A4000F7F198C397170000938787739C43094752
:102A500098C30100938741819C439C43E5FF9717EE
:102A60000000938767719C4309671307B7F198C308
:102A700097170000938787709C43054798C3010010
:102A8000938741819C439C43E5FF97170000938700
:102A9000676F9C439C43232CF4FC9717000093879B
:102AA000E76D9C4323A00700032784FDC16793873C
:102AB000F7F1F98F232CF4FC832784FD93E70708B3
:102AC000232CF4FC971700009387076B9C4309673E
:102AD0001307B7F198C3971700009387676A9C4361
:102AE000032784FD98C30100938741819C439C4345
:102AF000E5FF97170000938727689C430967130732
:102B0000F7F198C397170000938787679C4323A02A
:102B100007000100938741819C439C43E5FF01002E
:102B2000325445618280011106CE22CC0010C1676B
:102B3000FD172326F4FEB7470F00938707242324AD
:102B4000F4FE938781819C439C432326F4FE938764
:102B5000C1819C43154798C3938701829C431D679D
:102B60001307772098C3938741829C43376760603F
:102B70001307C70398C3938781829C433707C0B16B
:102B800098C39387C1829C434167130707F098C39A
:102B9000938701839C433707FF0F98C39387418333
:102BA0009C43370700041307071898C39387818352
:102BB0009C43370781067D1798C39387C1839C4345
:102BC00023A00700938701849C43370708007D17E3
:102BD00098C3938741849C433D4798C393878184DE
:102BE0009C431D4798C39387C1849C43114798C356
:102BF000832784FEFD172324F4FE832784FEEDFB48
:102C0000EFF0BFB60100F2406244056182802D7191
:102C1000232E1110232C81100012EFF01F85854602
:102C20006946B7050071138581DAEFD01FFA971551
:102C300000009385255A138581DAEFE0EFA7094656
:102C4000B7050075138501DAEFE0DF97014681458E
:102C5000138501DAEFE0DFB901468545138501DA16
:102C6000EFE01FB901468945138501DAEFE05FB84F
:102C700001468D45138501DAEFE09FB76D351306E8
:102C80000002B7050076138501DBEFE0EFAF138597
:102C900001DBEFE02FBE930710F82304F4EE930757
:102CA000D005A304F4EE230204EEA30204EE010017
:102CB00001468145138501DAEFE09FB3138581DA80
:102CC000EFE02FA8AA87FDFB9307C4EE13060010C0
:102CD000BE85138581DAEFE00F8E2326A4FE8327BD
:102CE000C4FEE9DF9307C4EE0326C4FEBE85138548
:102CF00081DAEFE0CF828347C4EEE207E1873E85C9
:102D0000EFF09F8465BF011106CE22CC0010AA8788
:102D10002E87A307F4FEBA872307F4FE0347F4FEC9
:102D20008D4763EDE7008347F4FE0347E4FE3A86F0
:102D3000BE85138501DAEFE0BFAB21A88347F4FE1F
:102D40000347E4FE3A86BE85171500001305052BE0
:102D5000ED280100F240624405618280411106C6FF
:102D600022C40008138501DAEFE0DF97AA873E85C9
:102D7000B240224441018280797106D622D40018E3
:102D8000AA87231FF4FC231604FE231404FE835792
:102D9000E4FDA183C207C18393F7F70F2304F4FE78
:102DA0008357E4FD93F7F70FA304F4FE814505452F
:102DB000993F9306C4FE930784FE09470946BE85E2
:102DC000138501DBEFE04FB2854505452D3F834775
:102DD000C4FE3E85B250225445618280797106D688
:102DE00022D40018AA872E87231FF4FCBA87A30ECB
:102DF000F4FC231604FE230704FE8357E4FDA1839D
:102E0000C207C18393F7F70F2306F4FE8357E4FD4F
:102E100093F7F70FA306F4FE8347D4FD2307F4FED0
:102E200081450545CD359307C4FE014781460D46D2
:102E3000BE85138501DBEFE02FAB85450545E13508
:102E40000100B2502254456182805D7106D622D4C1
:102E50000018232EA4FC4CC010C454C418C85CC86D
:102E6000232C0401232E1401930704029117232419
:102E7000F4FE832784FEBE860326C4FD930500105E
:102E8000138501BAED242326A4FE8327C4FE63D54F
:102E900007008327C4FE1DA80327C4FE9307F00F75
:102EA00063DBE7001306F00F938501BA138581DA1F
:102EB000EFD0FFE611A88327C4FE3E86938501BAB2
:102EC000138581DAEFD0BFE58327C4FE3E85B2507B
:102ED000225461618280797106D622D40018232E93
:102EE000A4FC0325C4FD6528AA873E868325C4FD6E
:102EF000138581DAEFD0BFE297170000938707139D
:102F00002326F4FE09468325C4FE138581DAEFD01B
:102F10001FE181473E85B2502254456182802A8359
:102F200011C62300B3007D16050365FE82801716C7
:102F300000001306F60F0548B28805058347F5FF24
:102F40003387C700034707000D8B6314070193877E
:102F50000702850503C7F5FFB386E80083C60600B0
:102F60008D8A6394060113070702998F91E371F725
:102F70003E8582800346050083C60500050585055C
:102F80006313D60065FA3305D6408280AA8703C74B
:102F9000050085078505A38FE7FE75FB8280AA875C
:102FA000850703C7F7FF6DFF3385A7407D15828036
:102FB000AA8709CA850503C7F5FF85077D16A38F74
:102FC000E7FE65FB3E966393C70082808507A38F6B
:102FD00007FED5BF411122C6AA8F2E881713000005
:102FE00013031305130718008347F7FF33856700A2
:102FF0008348050093F88800639708081305D002FA
:103000006395A70883470700054E13072800FDC2F4
:1030100041456392A60213050003639EA700834700
:1030200007001305800593F7F70D6390A70C8347FE
:103030001700C14609073703008063140E001343CD
:10304000F3FFB372D30281480145A543654F7D5418
:10305000B35ED302138807FD63E40305C28763DF11
:10306000D704638E8800FD5863EBAE006394AE0016
:1030700063C7F20085483388A60233850701050738
:103080008347F7FFC1BF3A88B1BF1305B00263841D
:10309000A700014EADBF8347070013072800D5BF27
:1030A0001388F7FB63650F01938797FC4DBF138867
:1030B000F7F963650F01938797FA55B7FD57639B3F
:1030C000F8009307200223A0FF001A8519EA324472
:1030D0004101828063040E003305A0406DDA6384F1
:1030E00008009305F7FF0CC2DDB793070003A1F6B4
:1030F000A14691B713050003E383A7F2A94625BFB4
:1031000093870185B2862E86AA858843E1B5197119
:10311000A2DC86DEA6DACAD83284635C0600930796
:10312000B0081CC17D55F6506654D6544659096105
:1031300082803686930680202EC42ECC231AD1009E
:10314000814519C09305F4FF7D592EC82ECEBA864D
:103150002C00AA84231B21013922635525019307E2
:10316000B0089CC069D0A247238007006DBF938739
:1031700001853687B2862E86AA85884349BF01110C
:103180004AC803A9850022CC52C45AC006CE26CA1A
:103190004EC656C22E84328B368A63ED260983D7FB
:1031A000C50013F7074849C704408C495848AA8A04
:1031B000B389B4408D44B384E4020947B3C4E40244
:1031C000138716004E9763F3E400BA8493F7074021
:1031D000C9C3A6855685EF00E07A2A890DE5B14777
:1031E00023A0FA008357C4007D5593E707042316F4
:1031F000F400F2406244D2444249B249224A924A1F
:10320000024B056182800C484E86692D8357C400AD
:1032100093F7F7B793E707082316F4002328240150
:1032200044C84E99B38434412320240104C45289F4
:1032300063732A01528908404A86DA85BD2D1C44F1
:103240000145B38727411CC41C403E99232024011B
:103250004DB726865685EF00C07F2A8961F10C485C
:103260005685BD2DADBF83D7C500717126D34AD118
:103270004ECF06D722D552CD56CB5AC95EC762C5AE
:1032800066C393F70708AA892E89B284B1C39C4903
:10329000A1E39305000436C6F5252320A9002328C1
:1032A000A900B24615E1B14723A0F9007D55BA50F7
:1032B0002A549A540A59FA496A4ADA4A4A4BBA4B8A
:1032C0002A4C9A4C4D61828093070004232AF9000E
:1032D00093070002A30CF1029307000302DA230D07
:1032E000F10236CE930B5002971A0000938A8AE4BB
:1032F000054C294B26848347040099C3639B7709B7
:10330000B30C9440638D0C00E6862686CA854E85F4
:10331000BD35FD576301F51AD256E69636DA834776
:103320000400638A0718FD579304140002D002D6E4
:103330003ED202D4A301010682DC83C504001546F7
:103340005685A12313841400825731E513F7070132
:1033500009C713070002A301E10613F7870009C795
:103360001307B002A301E10683C604001307A002FD
:10337000638BE602B2572684814625460347040044
:1033800093051400130707FD6374E6068DC63ED649
:103390001DA005048DB7330555413315AC00C98F09
:1033A0003ED0A28459BF724793064700184336CED9
:1033B000634907023AD6034704009307E002631FFC
:1033C000F704034714009307A002631BF702F247B8
:1033D0000904138747009C433ACE63C107023ED2DB
:1033E00035A83307E04093E727003AD63ED0E1B74F
:1033F000B387670385462E84BA9749B7FD57C5B78B
:10340000050402D2814681472546034704009305FF
:103410001400130707FD6376E606F1F28345040006
:103420000D4617150000130565D1852111CD97179D
:1034300000009387A7D01D8D93070004B397A700C2
:10344000025505045D8D2AD08345040019461715E1
:1034500000001305E5CE93041400230CB1023521BE
:1034600025C597D7FF7F9387E7B995E70257F247BE
:103470001377071009CF91073ECED257D2973EDA85
:1034800095BDB387670385462E84BA97BDBF9D0758
:10349000E19BA107D5B7780897060000938666CE12
:1034A0004A860C104E8597000000E7000000FD578B
:1034B0002A8AE314F5FC8357C9007D5593F7070466
:1034C000E39707DE5255E5B3780897060000938628
:1034D00046CB4A860C104E85012AD1BF797156CA57
:1034E0009C49BA8A984522D426D24ECE52CC06D6D2
:1034F0004AD05AC85EC6AA892E84B284368A63D35B
:10350000E700BA879CC00347340419C385079CC0F1
:103510001C4093F7070281C79C4089079CC0032980
:10352000040013796900631A0900130B9401FD5B11
:103530005C449840998F634CF9041C4083463404E2
:1035400093F70702B336D000A5EB13063404D285F7
:103550004E85829AFD576303F5041C40114698403E
:10356000998B544481446397C700B384E64063D386
:10357000040081441C4418486354F700998FBE949A
:10358000014969047D5B63982405014509A88546C6
:103590005A86D2854E85829A631E75017D55B2503A
:1035A000225492540259F249624AD24A424BB24BD7
:1035B000456182800509ADBF3307D40013060003BF
:1035C000A301C7040347540493871600A2978906F2
:1035D000A381E7049DBF85462286D2854E85829AC7
:1035E000E30E65FB050945B7797122D426D24AD08E
:1035F0004ECE06D652CC56CA5AC8B68983C6850165
:103600009307E0063289AA842E84138635046380EA
:10361000F61E63E2D706930730066382F60A63ED6F
:10362000D700638A061E930780056386F616930A01
:1036300024042301D40469A8930740066386F60096
:1036400093079006E395F6FE1C40084393F607089F
:1036500093054500C1C21C410CC363D80700130782
:10366000D002B307F040A301E4049716000093864C
:10367000A6AD294765A0930730076382F61A63EF6A
:10368000D7009307F006638FF60493070007E390D3
:10369000F6FA9C4193E707029CC109A893075007DB
:1036A0006382F60493078007E393F6F89307800795
:1036B000A302F40497160000938646AADDA01C43DB
:1036C000938A2504938647009C4314C32381F50401
:1036D0008547ADA293F607041C410CC3BDDEC207AB
:1036E000C187A5BF0C401C4313F80508138547008C
:1036F0006305080008C39C4339A093F5050408C37B
:10370000FDD983D707001307F006638AE60C9716E6
:103710000000938666A32947A30104044C400CC40F
:1037200063C5050008406D9908C099E3B28A91CD40
:10373000B28AB3F5E702FD1AB69583C5050023806A
:10374000BA00B3D5E70263F2E70AA147631EF700A8
:103750001C40858B91CB58401C4863C7E7009307FA
:103760000003A38FFAFEFD1A3306564110C84E8798
:10377000CA867000A285268595337D5A6314450D4F
:103780007D55B250225492540259F249624AD24AAB
:10379000424B45618280A382D50497160000938630
:1037A000A69A0C40084313F805081C411105630054
:1037B000080208C313F7150001C793E505020CC002
:1037C0004147B9FB0C4093F5F5FD0CC0B1B713F8B8
:1037D000050408C3E30008FEC207C183E1BF9716D2
:1037E000000093866696214705BFAE8799B794413E
:1037F0001C43CC4913F806081385470063060800EC
:1038000008C39C438CC301A808C393F606049C43D9
:10381000F5DA2390B70023280400B28A89BF1C433D
:10382000D04181459386470014C383AA070056857B
:10383000A92801C53305554148C05C401CC8A301F7
:10384000040435B714485686CA8526858299E3094B
:1038500045F31C40898B8DE7B2474844E353F5F2AA
:103860003E8505B785465686CA8526858299E30931
:1038700065F1050A5C443247998FE345FAFEE9BFDA
:10388000014A930A94017D5BF5B793F5F50F2A96EB
:103890006314C5000145828083470500E38DB7FEB0
:1038A0000505FDB72A8309CA838305002300730039
:1038B0007D16050385056DFA828015C22A8385462B
:1038C0006367B500FD561307F6FF3A93BA958383F5
:1038D0000500230073007D163693B6956DFA82803D
:1038E000CDC183A7C5FF411122C406C626C21384D9
:1038F000C5FF63D307003E94AA84C12A9387C1A65B
:103900009C4399EB2322040023A681A62244B240C3
:103910002685924441015DAA637EF400144033077A
:10392000D4006396E7009843DC43369718C05CC028
:10393000E1BFBA87D84319C3E37DE4FE94433386DD
:10394000D700631F86001040B29694C33386D70019
:10395000E31EC7FA10435843B29694C3D8C37DB749
:103960006375C400B1479CC055B71040B306C4008E
:103970006316D70014435843B29614C058C0C0C34E
:1039800071B78280011126CA93843500F19806CE62
:1039900022CC4AC84EC6A104B14763F1F404B14435
:1039A00063E0B4042A8915229387C1A698433A8418
:1039B00031E0938701A79C4391E781454A85CD205B
:1039C00023A8A1A6A6854A85E128FD5963173507D6
:1039D000B1472320F9004A85D52829A0E3D204FC69
:1039E000B1471CC10145F2406244D2444249B24948
:1039F000056182801C40858F63CE0702AD4663F669
:103A0000F6001CC03E9404C031A05C4063128702E3
:103A100023A6F1A64A855D281305B4009307440048
:103A200061993307F54061D33A94898F1CC065BF13
:103A30005CC3CDB722874040A5BF13043500719801
:103A4000E30385FCB305A4404A859928E31D35FBB3
:103A500041B799E1B2853DB7011122CC06CE26CA05
:103A60004AC84EC6328419EAA53D0149F240624473
:103A70004A85D2444249B24905618280AE84AA890E
:103A8000B9202689E37485FEA2854E85E53D2A8905
:103A900071DDA68522863935A6854E859135F9B723
:103AA000411122C42A842E8523AE01DE06C6EFC052
:103AB0007FFCFD576317F5009387C1DF9C4391C3DB
:103AC0001CC0B2402244410182808280828083A750
:103AD000C5FF1385C7FF63D50700AA959C413E9596
:103AE00082800000000000000000000000000000D4
:103AF000C2090080B4090080D00900805A0A008001
:103B0000320A0080320A0080320A0080320A0080C5
:103B1000DE090080EC090080FA090080080A0080B4
:103B2000160A0080240A00803E0A00804C0A0080A9
:103B3000696E20636D645F7465737420776974685F
:103B400020706172616D733A2025730D0A000000C8
:103B50007465737420636F6D6D616E642075736737
:103B6000653A0D0A20202074657374205B616E79BC
:103B700020706172616D65746572735D0D0A0D0070
:103B80006E6F206770696F206E756D626572207050
:103B9000726F76696465640D000000006770696F7C
:103BA000207374617465733A203078253038780D4D
:103BB0000A0000006F6E00006F666600746F670099
:103BC000756E6B6E6F776E206770696F20636F6DB7
:103BD0006D616E643A2025730D0A00006770696F8D
:103BE00020636F6D6D616E642075736167653A0D5A
:103BF0000A2020206770696F205B3C6770696F2026
:103C00006E756D6265723E203C6F6E207C206F6623
:103C1000663E5D0D0A20202065672E2022677069B0
:103C20006F22206F7220226770696F2031206F6EC3
:103C3000220D0A0D000000006E6F20616464726541
:103C400073732070726F76696465640D0000000004
:103C500072656164000000007265616420616464E3
:103C60007220307825782C206461746120307825AA
:103C70003032780D0A000000777269746500000028
:103C80007772697465206164647220307825782CBD
:103C9000206461746120307825780D0A00000000EE
:103CA000756E6B6E6F776E20737069206F706572C2
:103CB0006174696F6E3A2025730D0A007370692074
:103CC000636F6D6D616E642075736167653A0D0A8F
:103CD000202020737069205B3C72656164207C2029
:103CE00077726974653E5D205B3C7265616420613A
:103CF000646472657373207C2077726974652061D7
:103D0000646472657373207772697465206461748A
:103D1000613E5D200D0A20202065672E20227370F1
:103D200069207265616420307831356422206F72B9
:103D3000202273706920777269746520307831357C
:103D4000642030783061220D0A0D000072656164D4
:103D5000206164647220307825782C2025642077D7
:103D60006F7264730D0A00000D0A307825303478C4
:103D70002000000020202530387800000D0A0D00BA
:103D8000756E6B6E6F776E206D656D6F7279206FDB
:103D90007065726174696F6E3A2025730D0A0000B8
:103DA0006D656D20636F6D6D616E64207573616705
:103DB000653A0D0A2020206D656D205B3C726561BF
:103DC00064207C2077726974653E5D205B3C72657F
:103DD00061642061646472657373207C207772690A
:103DE00074652061646472657373207772697465A9
:103DF00020646174613E5D200D0A20202065672EDD
:103E000020226D656D207265616420307836353012
:103E1000303030613022206F7220226D656D207746
:103E2000726974652030783635303030306130203A
:103E300030783032220D0A0D00000000636F6E668C
:103E400069670000756E6B6E6F776E20616463202A
:103E50006B6579776F72643A2025730D0A00000054
:103E600061646320636F6D6D616E6420757361675B
:103E7000653A0D0A20202061646320636F6E6669D5
:103E8000670D0A20202065672E202261646320636D
:103E90006F6E66696722206F7220226164632063FF
:103EA0006F6E666967220D0A0D0000006E6F206359
:103EB0006F6D6D616E64206E616D65642025730D9C
:103EC0000A00000020202020252D36732025730DA8
:103ED0000A00000068656C7020636F6D6D616E6430
:103EE0002075736167653A0D0A20202068656C7043
:103EF000205B636F6D6D616E64206E616D655D0D3D
:103F00000A20202065672E202268656C7022206FB1
:103F100072202268656C70206770696F220D0A0D2F
:103F200000000000636F6E666967757265206164EA
:103F30006300000061646300736574206F72206722
:103F40006574206770696F206F7574707574206C6C
:103F50006576656C730000006770696F0000000093
:103F600073686F772068656C70206D656E750000F2
:103F700068656C70000000006D656D6F727920726D
:103F8000656164206F7220777269746500000000BB
:103F90006D656D007370692072656164206F7220B9
:103FA00077726974650000007370690074657374DA
:103FB00020636F6D6D616E642C206E6F2066756E70
:103FC0006374696F6E616C697479000074657374F1
:103FD00000000000000000000D252A730D2573006D
:103FE000756E6B6E6F776E20636F6D6D616E643A88
:103FF0002025730D0A0000006770696F20736574D7
:104000002062616420706172616D65746572733ADB
:10401000206770696F2025642C206C6576656C20A4
:1040200025640D0A000000000D0A00000020202079
:104030002020202020202828282828202020202058
:104040002020202020202020202020202088101028
:104050001010101010101010101010101004040484
:104060000404040404040410101010101010414142
:104070004141414101010101010101010101010130
:104080000101010101010101101010101010424244
:104090004242424202020202020202020202020200
:1040A00002020202020202021010101020000000A0
:1040B0000000000000000000000000000000000000
:1040C00000000000000000000000000000000000F0
:1040D00000000000000000000000000000000000E0
:1040E00000000000000000000000000000000000D0
:1040F00000000000000000000000000000000000C0
:1041000000000000000000000000000000000000AF
:10411000000000000000000000000000000000009F
:10412000000000000000000000000000000000008F
:10413000232D302B20000000686C4C00656667451D
:104140004647000030313233343536373839414252
:1041500043444546000000003031323334353637B1
:104160003839616263646566000000000000000089
:104170007047008028000073240000732C00007337
:1041800030000073340000735C00007300000073A3
:104190000400007340000073440000734800007383
:1041A0004C000073500000735400007358000073FB
:1041B0005C000073C00100732000007338000073BE
:1041C00044430080000000000000000000000000E8
:1041D0000D0A0D0A2A2A2A2A2A2A2A2A2A2A2A2AB9
:1041E0002A2A2A2A2A2A2A2A2A2A2A2A2A2A2A2A2F
:1041F0002A2A2A2A2A2A2A2A2A2A2A2A2A2A2A2A1F
:104200002A2A2A2A2A2A2A2A2A2A2A2A2A2A2A2A0E
:104210002A2A2A2A2A2A2A2A2A2A2A2A2A2A2A0D1B
:104220000A2A2A2A2A2A2A2A2A2A2A2A2A2A2A2A0E
:104230002A2A2A20204158495320464545204465D2
:1042400076656C6F706D656E742050726F6A656311
:1042500074202A2A2A2A2A2A2A2A2A2A2A2A2A2A7E
:104260002A2A2A2A2A2A2A2A2A2A2A2A0D0A2A2AEB
:104270002A2A2A2A2A2A2A2A2A2A2A2A2A2A2A2A9E
:104280002A2A2A2A2A2A2A2A2A2A2A2A2A2A2A2A8E
:104290002A2A2A2A2A2A2A2A2A2A2A2A2A2A2A2A7E
:1042A0002A2A2A2A2A2A2A2A2A2A2A2A2A2A2A2A6E
:1042B0002A2A2A2A2A2A2A2A2A0D0A0D0A0D0A54EB
:1042C000686973206578616D706C652064656D6FD9
:1042D0006E73747261746573206D697363656C6C61
:1042E000616E656F75732066756E6374696F6E615C
:1042F0006C6974792074686174206D6179206265DD
:104300002075736566756C2E0A0D546865206865A6
:104310006C70206D656E75206861732061206C691A
:104320007374206F6620616C6C20706F73736962A8
:104330006C6520636F6D6D616E64732E0D0A0D0ADE
:10434000000000000000000000000000000000006D
:10435000000000000000000000000000000000005D
:10436000000000000000000000000000000000004D
:10437000000000000000000000000000000000003D
:10438000000000000000000000000000000000002D
:10439000000000000000000000000000000000001D
:1043A000000000000000000000000000000000000D
:040000058000000077
:00000001FF
